{
  "contractName": "Migrations",
  "abi": [
    {
      "constant": true,
      "inputs": [],
      "name": "lastCompletedMigeration",
      "outputs": [
        {
          "internalType": "uint256",
          "name": "",
          "type": "uint256"
        }
      ],
      "payable": false,
      "stateMutability": "view",
      "type": "function"
    },
    {
      "constant": true,
      "inputs": [],
      "name": "owner",
      "outputs": [
        {
          "internalType": "address",
          "name": "",
          "type": "address"
        }
      ],
      "payable": false,
      "stateMutability": "view",
      "type": "function"
    },
    {
      "constant": false,
      "inputs": [
        {
          "internalType": "uint256",
          "name": "completed",
          "type": "uint256"
        }
      ],
      "name": "setCompleted",
      "outputs": [],
      "payable": false,
      "stateMutability": "nonpayable",
      "type": "function"
    }
  ],
  "bytecode": "0x6080604052336000806101000a81548173ffffffffffffffffffffffffffffffffffffffff021916908373ffffffffffffffffffffffffffffffffffffffff16021790555034801561005057600080fd5b5061019c806100606000396000f3fe608060405234801561001057600080fd5b50600436106100415760003560e01c806346760eef146100465780638da5cb5b14610064578063fdacd576146100ae575b600080fd5b61004e6100dc565b6040518082815260200191505060405180910390f35b61006c6100e2565b604051808273ffffffffffffffffffffffffffffffffffffffff1673ffffffffffffffffffffffffffffffffffffffff16815260200191505060405180910390f35b6100da600480360360208110156100c457600080fd5b8101908080359060200190929190505050610107565b005b60015481565b6000809054906101000a900473ffffffffffffffffffffffffffffffffffffffff1681565b6000809054906101000a900473ffffffffffffffffffffffffffffffffffffffff1673ffffffffffffffffffffffffffffffffffffffff163373ffffffffffffffffffffffffffffffffffffffff16141561016457806001819055505b5056fea265627a7a723158206dc5111b05670d2b23f5bce523ae0a9526dc5c1db4d2c24e4e871868c7886aa464736f6c63430005100032",
  "source": "pragma solidity 0.5.16;\n\n\ncontract Migrations {\n    address public owner = msg.sender;\n    uint256 public lastCompletedMigeration;\n\n    modifier restricted() {\n      \n        if (msg.sender == owner) _;\n    }\n\n    function setCompleted(uint256 completed) public restricted {\n        lastCompletedMigeration = completed;\n    }\n}\n",
  "sourcePath": "/Volumes/Study/8th Semester/BlockChain/Assignments /ass_2/ass_2/pet-shop-tutorial/contracts/Migrations.sol",
  "compiler": {
    "name": "solc",
    "version": "0.5.16+commit.9c3226ce.Emscripten.clang"
  },
  "schemaVersion": "3.4.7",
  "updatedAt": "2022-04-17T17:27:58.060Z",
  "networkType": "ethereum",
  "devdoc": {
    "methods": {}
  },
  "userdoc": {
    "methods": {}
  }
}